{
  "contractName": "RevoltToken",
  "abi": [
    {
      "inputs": [
        {
          "internalType": "uint256",
          "name": "_totalSupply",
          "type": "uint256"
        },
        {
          "internalType": "address",
          "name": "_admin",
          "type": "address"
        }
      ],
      "stateMutability": "nonpayable",
      "type": "constructor"
    },
    {
      "anonymous": false,
      "inputs": [
        {
          "indexed": true,
          "internalType": "address",
          "name": "_from",
          "type": "address"
        },
        {
          "indexed": true,
          "internalType": "address",
          "name": "_spender",
          "type": "address"
        },
        {
          "indexed": false,
          "internalType": "uint256",
          "name": "_value",
          "type": "uint256"
        }
      ],
      "name": "Approval",
      "type": "event"
    },
    {
      "anonymous": false,
      "inputs": [
        {
          "indexed": true,
          "internalType": "address",
          "name": "_from",
          "type": "address"
        },
        {
          "indexed": true,
          "internalType": "address",
          "name": "_to",
          "type": "address"
        },
        {
          "indexed": false,
          "internalType": "uint256",
          "name": "_value",
          "type": "uint256"
        }
      ],
      "name": "Transfer",
      "type": "event"
    },
    {
      "inputs": [],
      "name": "admin",
      "outputs": [
        {
          "internalType": "address",
          "name": "",
          "type": "address"
        }
      ],
      "stateMutability": "view",
      "type": "function"
    },
    {
      "inputs": [
        {
          "internalType": "address",
          "name": "",
          "type": "address"
        },
        {
          "internalType": "address",
          "name": "",
          "type": "address"
        }
      ],
      "name": "allowance",
      "outputs": [
        {
          "internalType": "uint256",
          "name": "",
          "type": "uint256"
        }
      ],
      "stateMutability": "view",
      "type": "function"
    },
    {
      "inputs": [
        {
          "internalType": "address",
          "name": "",
          "type": "address"
        }
      ],
      "name": "balanceOf",
      "outputs": [
        {
          "internalType": "uint256",
          "name": "",
          "type": "uint256"
        }
      ],
      "stateMutability": "view",
      "type": "function"
    },
    {
      "inputs": [],
      "name": "decimals",
      "outputs": [
        {
          "internalType": "uint256",
          "name": "",
          "type": "uint256"
        }
      ],
      "stateMutability": "view",
      "type": "function"
    },
    {
      "inputs": [],
      "name": "name",
      "outputs": [
        {
          "internalType": "string",
          "name": "",
          "type": "string"
        }
      ],
      "stateMutability": "view",
      "type": "function"
    },
    {
      "inputs": [],
      "name": "symbol",
      "outputs": [
        {
          "internalType": "string",
          "name": "",
          "type": "string"
        }
      ],
      "stateMutability": "view",
      "type": "function"
    },
    {
      "inputs": [],
      "name": "tokenSale",
      "outputs": [
        {
          "internalType": "address",
          "name": "",
          "type": "address"
        }
      ],
      "stateMutability": "view",
      "type": "function"
    },
    {
      "inputs": [],
      "name": "totalSupply",
      "outputs": [
        {
          "internalType": "uint256",
          "name": "",
          "type": "uint256"
        }
      ],
      "stateMutability": "view",
      "type": "function"
    },
    {
      "inputs": [
        {
          "internalType": "address",
          "name": "_to",
          "type": "address"
        },
        {
          "internalType": "uint256",
          "name": "_value",
          "type": "uint256"
        }
      ],
      "name": "transfer",
      "outputs": [
        {
          "internalType": "bool",
          "name": "success",
          "type": "bool"
        }
      ],
      "stateMutability": "nonpayable",
      "type": "function"
    },
    {
      "inputs": [
        {
          "internalType": "address",
          "name": "_spender",
          "type": "address"
        },
        {
          "internalType": "uint256",
          "name": "_value",
          "type": "uint256"
        }
      ],
      "name": "approve",
      "outputs": [
        {
          "internalType": "bool",
          "name": "success",
          "type": "bool"
        }
      ],
      "stateMutability": "nonpayable",
      "type": "function"
    },
    {
      "inputs": [
        {
          "internalType": "address",
          "name": "_from",
          "type": "address"
        },
        {
          "internalType": "address",
          "name": "_to",
          "type": "address"
        },
        {
          "internalType": "uint256",
          "name": "_value",
          "type": "uint256"
        }
      ],
      "name": "transferFrom",
      "outputs": [
        {
          "internalType": "bool",
          "name": "success",
          "type": "bool"
        }
      ],
      "stateMutability": "nonpayable",
      "type": "function"
    },
    {
      "inputs": [
        {
          "internalType": "address",
          "name": "_tokenSale",
          "type": "address"
        }
      ],
      "name": "transferToTokenSale",
      "outputs": [
        {
          "internalType": "bool",
          "name": "",
          "type": "bool"
        }
      ],
      "stateMutability": "nonpayable",
      "type": "function"
    }
  ],
  "bytecode": "0x60806040526040518060400160405280600c81526020017f5265766f6c7420546f6b656e0000000000000000000000000000000000000000815250600190816200004a919062000400565b506040518060400160405280600481526020017f52564c54000000000000000000000000000000000000000000000000000000008152506002908162000091919062000400565b503480156200009f57600080fd5b506040516200167a3803806200167a8339818101604052810190620000c5919062000582565b80600460006101000a81548173ffffffffffffffffffffffffffffffffffffffff021916908373ffffffffffffffffffffffffffffffffffffffff1602179055508160008190555060006003819055506203d09060066000600460009054906101000a900473ffffffffffffffffffffffffffffffffffffffff1673ffffffffffffffffffffffffffffffffffffffff1673ffffffffffffffffffffffffffffffffffffffff168152602001908152602001600020819055505050620005c9565b600081519050919050565b7f4e487b7100000000000000000000000000000000000000000000000000000000600052604160045260246000fd5b7f4e487b7100000000000000000000000000000000000000000000000000000000600052602260045260246000fd5b600060028204905060018216806200020857607f821691505b6020821081036200021e576200021d620001c0565b5b50919050565b60008190508160005260206000209050919050565b60006020601f8301049050919050565b600082821b905092915050565b600060088302620002887fffffffffffffffffffffffffffffffffffffffffffffffffffffffffffffffff8262000249565b62000294868362000249565b95508019841693508086168417925050509392505050565b6000819050919050565b6000819050919050565b6000620002e1620002db620002d584620002ac565b620002b6565b620002ac565b9050919050565b6000819050919050565b620002fd83620002c0565b620003156200030c82620002e8565b84845462000256565b825550505050565b600090565b6200032c6200031d565b62000339818484620002f2565b505050565b5b8181101562000361576200035560008262000322565b6001810190506200033f565b5050565b601f821115620003b0576200037a8162000224565b620003858462000239565b8101602085101562000395578190505b620003ad620003a48562000239565b8301826200033e565b50505b505050565b600082821c905092915050565b6000620003d560001984600802620003b5565b1980831691505092915050565b6000620003f08383620003c2565b9150826002028217905092915050565b6200040b8262000186565b67ffffffffffffffff81111562000427576200042662000191565b5b620004338254620001ef565b6200044082828562000365565b600060209050601f83116001811462000478576000841562000463578287015190505b6200046f8582620003e2565b865550620004df565b601f198416620004888662000224565b60005b82811015620004b2578489015182556001820191506020850194506020810190506200048b565b86831015620004d25784890151620004ce601f891682620003c2565b8355505b6001600288020188555050505b505050505050565b600080fd5b620004f781620002ac565b81146200050357600080fd5b50565b6000815190506200051781620004ec565b92915050565b600073ffffffffffffffffffffffffffffffffffffffff82169050919050565b60006200054a826200051d565b9050919050565b6200055c816200053d565b81146200056857600080fd5b50565b6000815190506200057c8162000551565b92915050565b600080604083850312156200059c576200059b620004e7565b5b6000620005ac8582860162000506565b9250506020620005bf858286016200056b565b9150509250929050565b6110a180620005d96000396000f3fe608060405234801561001057600080fd5b50600436106100b45760003560e01c806395d89b411161007157806395d89b41146101a3578063a9059cbb146101c1578063b9420310146101f1578063c730d6801461020f578063dd62ed3e1461023f578063f851a4401461026f576100b4565b806306fdde03146100b9578063095ea7b3146100d757806318160ddd1461010757806323b872dd14610125578063313ce5671461015557806370a0823114610173575b600080fd5b6100c161028d565b6040516100ce9190610b33565b60405180910390f35b6100f160048036038101906100ec9190610bee565b61031b565b6040516100fe9190610c49565b60405180910390f35b61010f61040d565b60405161011c9190610c73565b60405180910390f35b61013f600480360381019061013a9190610c8e565b610413565b60405161014c9190610c49565b60405180910390f35b61015d610705565b60405161016a9190610c73565b60405180910390f35b61018d60048036038101906101889190610ce1565b61070b565b60405161019a9190610c73565b60405180910390f35b6101ab610723565b6040516101b89190610b33565b60405180910390f35b6101db60048036038101906101d69190610bee565b6107b1565b6040516101e89190610c49565b60405180910390f35b6101f9610950565b6040516102069190610d1d565b60405180910390f35b61022960048036038101906102249190610ce1565b610976565b6040516102369190610c49565b60405180910390f35b61025960048036038101906102549190610d38565b610a58565b6040516102669190610c73565b60405180910390f35b610277610a7d565b6040516102849190610d1d565b60405180910390f35b6001805461029a90610da7565b80601f01602080910402602001604051908101604052809291908181526020018280546102c690610da7565b80156103135780601f106102e857610100808354040283529160200191610313565b820191906000526020600020905b8154815290600101906020018083116102f657829003601f168201915b505050505081565b600081600760003373ffffffffffffffffffffffffffffffffffffffff1673ffffffffffffffffffffffffffffffffffffffff16815260200190815260200160002060008573ffffffffffffffffffffffffffffffffffffffff1673ffffffffffffffffffffffffffffffffffffffff168152602001908152602001600020819055508273ffffffffffffffffffffffffffffffffffffffff163373ffffffffffffffffffffffffffffffffffffffff167f8c5be1e5ebec7d5bd14f71427d1e84f3dd0314c0f7b2291e5b200ac8c7c3b925846040516103fb9190610c73565b60405180910390a36001905092915050565b60005481565b6000600660008573ffffffffffffffffffffffffffffffffffffffff1673ffffffffffffffffffffffffffffffffffffffff16815260200190815260200160002054821115610497576040517f08c379a000000000000000000000000000000000000000000000000000000000815260040161048e90610e4a565b60405180910390fd5b600760008573ffffffffffffffffffffffffffffffffffffffff1673ffffffffffffffffffffffffffffffffffffffff16815260200190815260200160002060003373ffffffffffffffffffffffffffffffffffffffff1673ffffffffffffffffffffffffffffffffffffffff16815260200190815260200160002054821115610556576040517f08c379a000000000000000000000000000000000000000000000000000000000815260040161054d90610edc565b60405180910390fd5b81600660008573ffffffffffffffffffffffffffffffffffffffff1673ffffffffffffffffffffffffffffffffffffffff16815260200190815260200160002060008282546105a59190610f2b565b9250508190555081600660008673ffffffffffffffffffffffffffffffffffffffff1673ffffffffffffffffffffffffffffffffffffffff16815260200190815260200160002060008282546105fb9190610f5f565b9250508190555081600760008673ffffffffffffffffffffffffffffffffffffffff1673ffffffffffffffffffffffffffffffffffffffff16815260200190815260200160002060003373ffffffffffffffffffffffffffffffffffffffff1673ffffffffffffffffffffffffffffffffffffffff168152602001908152602001600020600082825461068e9190610f5f565b925050819055508273ffffffffffffffffffffffffffffffffffffffff168473ffffffffffffffffffffffffffffffffffffffff167fddf252ad1be2c89b69c2b068fc378daa952ba7f163c4a11628f55a4df523b3ef846040516106f29190610c73565b60405180910390a3600190509392505050565b60035481565b60066020528060005260406000206000915090505481565b6002805461073090610da7565b80601f016020809104026020016040519081016040528092919081815260200182805461075c90610da7565b80156107a95780601f1061077e576101008083540402835291602001916107a9565b820191906000526020600020905b81548152906001019060200180831161078c57829003601f168201915b505050505081565b600081600660003373ffffffffffffffffffffffffffffffffffffffff1673ffffffffffffffffffffffffffffffffffffffff168152602001908152602001600020541015610835576040517f08c379a000000000000000000000000000000000000000000000000000000000815260040161082c90610fdf565b60405180910390fd5b81600660008573ffffffffffffffffffffffffffffffffffffffff1673ffffffffffffffffffffffffffffffffffffffff16815260200190815260200160002060008282546108849190610f2b565b9250508190555081600660003373ffffffffffffffffffffffffffffffffffffffff1673ffffffffffffffffffffffffffffffffffffffff16815260200190815260200160002060008282546108da9190610f5f565b925050819055508273ffffffffffffffffffffffffffffffffffffffff163373ffffffffffffffffffffffffffffffffffffffff167fddf252ad1be2c89b69c2b068fc378daa952ba7f163c4a11628f55a4df523b3ef8460405161093e9190610c73565b60405180910390a36001905092915050565b600560009054906101000a900473ffffffffffffffffffffffffffffffffffffffff1681565b6000600460009054906101000a900473ffffffffffffffffffffffffffffffffffffffff1673ffffffffffffffffffffffffffffffffffffffff163373ffffffffffffffffffffffffffffffffffffffff1614610a08576040517f08c379a00000000000000000000000000000000000000000000000000000000081526004016109ff9061104b565b60405180910390fd5b620b71b0600660008473ffffffffffffffffffffffffffffffffffffffff1673ffffffffffffffffffffffffffffffffffffffff1681526020019081526020016000208190555060019050919050565b6007602052816000526040600020602052806000526040600020600091509150505481565b600460009054906101000a900473ffffffffffffffffffffffffffffffffffffffff1681565b600081519050919050565b600082825260208201905092915050565b60005b83811015610add578082015181840152602081019050610ac2565b60008484015250505050565b6000601f19601f8301169050919050565b6000610b0582610aa3565b610b0f8185610aae565b9350610b1f818560208601610abf565b610b2881610ae9565b840191505092915050565b60006020820190508181036000830152610b4d8184610afa565b905092915050565b600080fd5b600073ffffffffffffffffffffffffffffffffffffffff82169050919050565b6000610b8582610b5a565b9050919050565b610b9581610b7a565b8114610ba057600080fd5b50565b600081359050610bb281610b8c565b92915050565b6000819050919050565b610bcb81610bb8565b8114610bd657600080fd5b50565b600081359050610be881610bc2565b92915050565b60008060408385031215610c0557610c04610b55565b5b6000610c1385828601610ba3565b9250506020610c2485828601610bd9565b9150509250929050565b60008115159050919050565b610c4381610c2e565b82525050565b6000602082019050610c5e6000830184610c3a565b92915050565b610c6d81610bb8565b82525050565b6000602082019050610c886000830184610c64565b92915050565b600080600060608486031215610ca757610ca6610b55565b5b6000610cb586828701610ba3565b9350506020610cc686828701610ba3565b9250506040610cd786828701610bd9565b9150509250925092565b600060208284031215610cf757610cf6610b55565b5b6000610d0584828501610ba3565b91505092915050565b610d1781610b7a565b82525050565b6000602082019050610d326000830184610d0e565b92915050565b60008060408385031215610d4f57610d4e610b55565b5b6000610d5d85828601610ba3565b9250506020610d6e85828601610ba3565b9150509250929050565b7f4e487b7100000000000000000000000000000000000000000000000000000000600052602260045260246000fd5b60006002820490506001821680610dbf57607f821691505b602082108103610dd257610dd1610d78565b5b50919050565b7f5370656e646572206163636f756e7420646f65736e2774206861766520656e6f60008201527f7567682062616c616e6365000000000000000000000000000000000000000000602082015250565b6000610e34602b83610aae565b9150610e3f82610dd8565b604082019050919050565b60006020820190508181036000830152610e6381610e27565b9050919050565b7f596f7520646f6e27742068617665207065726d697373696f6e20746f2073706560008201527f6e64207468697320616d6f756e74206f6620746f6b656e000000000000000000602082015250565b6000610ec6603783610aae565b9150610ed182610e6a565b604082019050919050565b60006020820190508181036000830152610ef581610eb9565b9050919050565b7f4e487b7100000000000000000000000000000000000000000000000000000000600052601160045260246000fd5b6000610f3682610bb8565b9150610f4183610bb8565b9250828201905080821115610f5957610f58610efc565b5b92915050565b6000610f6a82610bb8565b9150610f7583610bb8565b9250828203905081811115610f8d57610f8c610efc565b5b92915050565b7f4e6f7420656e6f7567682062616c616e63650000000000000000000000000000600082015250565b6000610fc9601283610aae565b9150610fd482610f93565b602082019050919050565b60006020820190508181036000830152610ff881610fbc565b9050919050565b7f4f6e6c792061646d696e20616c6c6f7765640000000000000000000000000000600082015250565b6000611035601283610aae565b915061104082610fff565b602082019050919050565b6000602082019050818103600083015261106481611028565b905091905056fea264697066735822122081dd49d1f2328d77034ee536bcb62f8bf40e6f1c424939f40193bb57c7ce832864736f6c63430008110033",
  "immutableReferences": {},
  "source": "// SPDX-License-Identifier: MIT\r\n\r\npragma solidity 0.8.17;\r\n\r\ncontract RevoltToken {\r\n    uint256 public totalSupply;\r\n    string public name = \"Revolt Token\";\r\n    string public symbol = \"RVLT\";\r\n    uint256 public decimals;\r\n\r\n    address public admin;\r\n    address public tokenSale;\r\n\r\n    mapping(address => uint256) public balanceOf;\r\n    mapping(address => mapping(address => uint256)) public allowance;\r\n\r\n    event Transfer(address indexed _from, address indexed _to, uint256 _value);\r\n\r\n    event Approval(\r\n        address indexed _from,\r\n        address indexed _spender,\r\n        uint256 _value\r\n    );\r\n\r\n    constructor(uint256 _totalSupply, address _admin) {\r\n        admin = _admin;\r\n        totalSupply = _totalSupply;\r\n        decimals = 0;\r\n        balanceOf[admin] = 250000;\r\n    }\r\n\r\n    function transfer(address _to, uint256 _value)\r\n        public\r\n        returns (bool success)\r\n    {\r\n        require(balanceOf[msg.sender] >= _value, \"Not enough balance\");\r\n        balanceOf[_to] += _value;\r\n        balanceOf[msg.sender] -= _value;\r\n        emit Transfer(msg.sender, _to, _value);\r\n        return true;\r\n    }\r\n\r\n    function approve(address _spender, uint256 _value)\r\n        public\r\n        returns (bool success)\r\n    {\r\n        allowance[msg.sender][_spender] = _value;\r\n        emit Approval(msg.sender, _spender, _value);\r\n        return true;\r\n    }\r\n\r\n    function transferFrom(\r\n        address _from,\r\n        address _to,\r\n        uint256 _value\r\n    ) public returns (bool success) {\r\n        require(\r\n            _value <= balanceOf[_from],\r\n            \"Spender account doesn't have enough balance\"\r\n        );\r\n        require(\r\n            _value <= allowance[_from][msg.sender],\r\n            \"You don't have permission to spend this amount of token\"\r\n        );\r\n\r\n        balanceOf[_to] += _value;\r\n        balanceOf[_from] -= _value;\r\n\r\n        allowance[_from][msg.sender] -= _value;\r\n\r\n        emit Transfer(_from, _to, _value);\r\n\r\n        return true;\r\n    }\r\n\r\n    function transferToTokenSale(address _tokenSale) external returns (bool) {\r\n        require(msg.sender == admin, \"Only admin allowed\");\r\n        balanceOf[_tokenSale] = 750000;\r\n        return true;\r\n    }\r\n}\r\n",
  "sourcePath": "C:\\Users\\Divyesh\\Desktop\\Web3\\revoltcoin\\contracts\\Revolt.sol",
  "compiler": {
    "name": "solc",
    "version": "0.8.17+commit.8df45f5f.Emscripten.clang"
  },
  "schemaVersion": "3.4.8",
  "updatedAt": "2022-09-28T06:00:46.196Z",
  "devdoc": {
    "kind": "dev",
    "methods": {},
    "version": 1
  },
  "userdoc": {
    "kind": "user",
    "methods": {},
    "version": 1
  }
}