{
  "contractName": "TokenSale",
  "abi": [
    {
      "inputs": [
        {
          "internalType": "address",
          "name": "_tokenContract",
          "type": "address"
        }
      ],
      "stateMutability": "nonpayable",
      "type": "constructor"
    },
    {
      "anonymous": false,
      "inputs": [
        {
          "indexed": false,
          "internalType": "address",
          "name": "buyer",
          "type": "address"
        },
        {
          "indexed": false,
          "internalType": "uint256",
          "name": "value",
          "type": "uint256"
        }
      ],
      "name": "Sell",
      "type": "event"
    },
    {
      "inputs": [],
      "name": "tokenContractAddress",
      "outputs": [
        {
          "internalType": "address",
          "name": "",
          "type": "address"
        }
      ],
      "stateMutability": "view",
      "type": "function"
    },
    {
      "inputs": [],
      "name": "tokenPrice",
      "outputs": [
        {
          "internalType": "uint256",
          "name": "",
          "type": "uint256"
        }
      ],
      "stateMutability": "view",
      "type": "function"
    },
    {
      "inputs": [],
      "name": "tokenSold",
      "outputs": [
        {
          "internalType": "uint256",
          "name": "",
          "type": "uint256"
        }
      ],
      "stateMutability": "view",
      "type": "function"
    },
    {
      "inputs": [
        {
          "internalType": "uint256",
          "name": "_amount",
          "type": "uint256"
        }
      ],
      "name": "buyTokens",
      "outputs": [],
      "stateMutability": "payable",
      "type": "function"
    },
    {
      "inputs": [],
      "name": "endSale",
      "outputs": [],
      "stateMutability": "nonpayable",
      "type": "function"
    }
  ],
  "bytecode": "0x608060405234801561001057600080fd5b50604051610b21380380610b218339818101604052810190610032919061013e565b732e1a3c300458a847928b5b58748fc442e5fa16da6000806101000a81548173ffffffffffffffffffffffffffffffffffffffff021916908373ffffffffffffffffffffffffffffffffffffffff16021790555080600360006101000a81548173ffffffffffffffffffffffffffffffffffffffff021916908373ffffffffffffffffffffffffffffffffffffffff160217905550662386f26fc100006001819055505061016b565b600080fd5b600073ffffffffffffffffffffffffffffffffffffffff82169050919050565b600061010b826100e0565b9050919050565b61011b81610100565b811461012657600080fd5b50565b60008151905061013881610112565b92915050565b600060208284031215610154576101536100db565b5b600061016284828501610129565b91505092915050565b6109a78061017a6000396000f3fe60806040526004361061004a5760003560e01c80633610724e1461004f578063380d831b1461006b578063519ee19e146100825780637ff9b596146100ad57806382edaf94146100d8575b600080fd5b61006960048036038101906100649190610560565b610103565b005b34801561007757600080fd5b50610080610324565b005b34801561008e57600080fd5b506100976104bc565b6040516100a4919061059c565b60405180910390f35b3480156100b957600080fd5b506100c26104c2565b6040516100cf919061059c565b60405180910390f35b3480156100e457600080fd5b506100ed6104c8565b6040516100fa91906105f8565b60405180910390f35b80600360009054906101000a900473ffffffffffffffffffffffffffffffffffffffff1673ffffffffffffffffffffffffffffffffffffffff166370a08231306040518263ffffffff1660e01b815260040161015f91906105f8565b602060405180830381865afa15801561017c573d6000803e3d6000fd5b505050506040513d601f19601f820116820180604052508101906101a09190610628565b10156101e1576040517f08c379a00000000000000000000000000000000000000000000000000000000081526004016101d8906106b2565b60405180910390fd5b6101ed600154826104ee565b341461022e576040517f08c379a00000000000000000000000000000000000000000000000000000000081526004016102259061071e565b60405180910390fd5b8060026000828254610240919061076d565b92505081905550600360009054906101000a900473ffffffffffffffffffffffffffffffffffffffff1673ffffffffffffffffffffffffffffffffffffffff1663a9059cbb33836040518363ffffffff1660e01b81526004016102a49291906107a1565b6020604051808303816000875af11580156102c3573d6000803e3d6000fd5b505050506040513d601f19601f820116820180604052508101906102e79190610802565b507f5e5e995ce3133561afceaa51a9a154d5db228cd7525d34df5185582c18d3df0933826040516103199291906107a1565b60405180910390a150565b60008054906101000a900473ffffffffffffffffffffffffffffffffffffffff1673ffffffffffffffffffffffffffffffffffffffff163373ffffffffffffffffffffffffffffffffffffffff16146103b2576040517f08c379a00000000000000000000000000000000000000000000000000000000081526004016103a99061087b565b60405180910390fd5b600360009054906101000a900473ffffffffffffffffffffffffffffffffffffffff1673ffffffffffffffffffffffffffffffffffffffff1663a9059cbb60008054906101000a900473ffffffffffffffffffffffffffffffffffffffff16600254620b71b0610422919061089b565b6040518363ffffffff1660e01b815260040161043f9291906107a1565b6020604051808303816000875af115801561045e573d6000803e3d6000fd5b505050506040513d601f19601f820116820180604052508101906104829190610802565b5060008054906101000a900473ffffffffffffffffffffffffffffffffffffffff1673ffffffffffffffffffffffffffffffffffffffff16ff5b60025481565b60015481565b600360009054906101000a900473ffffffffffffffffffffffffffffffffffffffff1681565b60008082148061051657508282838561050791906108cf565b9250826105149190610940565b145b61051f57600080fd5b92915050565b600080fd5b6000819050919050565b61053d8161052a565b811461054857600080fd5b50565b60008135905061055a81610534565b92915050565b60006020828403121561057657610575610525565b5b60006105848482850161054b565b91505092915050565b6105968161052a565b82525050565b60006020820190506105b1600083018461058d565b92915050565b600073ffffffffffffffffffffffffffffffffffffffff82169050919050565b60006105e2826105b7565b9050919050565b6105f2816105d7565b82525050565b600060208201905061060d60008301846105e9565b92915050565b60008151905061062281610534565b92915050565b60006020828403121561063e5761063d610525565b5b600061064c84828501610613565b91505092915050565b600082825260208201905092915050565b7f436f6e7472616374206f7574206f6620746f6b656e7300000000000000000000600082015250565b600061069c601683610655565b91506106a782610666565b602082019050919050565b600060208201905081810360008301526106cb8161068f565b9050919050565b7f506c656173652073656e6420656e6f75676820657468657265756d0000000000600082015250565b6000610708601b83610655565b9150610713826106d2565b602082019050919050565b60006020820190508181036000830152610737816106fb565b9050919050565b7f4e487b7100000000000000000000000000000000000000000000000000000000600052601160045260246000fd5b60006107788261052a565b91506107838361052a565b925082820190508082111561079b5761079a61073e565b5b92915050565b60006040820190506107b660008301856105e9565b6107c3602083018461058d565b9392505050565b60008115159050919050565b6107df816107ca565b81146107ea57600080fd5b50565b6000815190506107fc816107d6565b92915050565b60006020828403121561081857610817610525565b5b6000610826848285016107ed565b91505092915050565b7f4f6e6c7920616c6c6f7765642062792061646d696e0000000000000000000000600082015250565b6000610865601583610655565b91506108708261082f565b602082019050919050565b6000602082019050818103600083015261089481610858565b9050919050565b60006108a68261052a565b91506108b18361052a565b92508282039050818111156108c9576108c861073e565b5b92915050565b60006108da8261052a565b91506108e58361052a565b92508282026108f38161052a565b9150828204841483151761090a5761090961073e565b5b5092915050565b7f4e487b7100000000000000000000000000000000000000000000000000000000600052601260045260246000fd5b600061094b8261052a565b91506109568361052a565b92508261096657610965610911565b5b82820490509291505056fea2646970667358221220b833aaa36c06de99e5b4b5a284e00f4a80bf00db877e6d2d7fa93c71bdd1413d64736f6c63430008110033",
  "immutableReferences": {},
  "source": "// SPDX-License-Identifier: MIT\r\n\r\npragma solidity 0.8.17;\r\n\r\ninterface TokenContract {\r\n    function balanceOf(address) external view returns (uint256);\r\n\r\n    function transfer(address, uint256) external returns (bool);\r\n}\r\n\r\ncontract TokenSale {\r\n    address admin;\r\n    uint256 public tokenPrice;\r\n    uint256 public tokenSold;\r\n    address public tokenContractAddress;\r\n\r\n    event Sell(address buyer, uint256 value);\r\n\r\n    constructor(address _tokenContract) {\r\n        admin = 0x2e1a3c300458a847928B5b58748FC442E5FA16DA;\r\n        tokenContractAddress = _tokenContract;\r\n        tokenPrice = 10000000000000000;\r\n    }\r\n\r\n    function multiply(uint256 x, uint256 y) internal pure returns (uint256 z) {\r\n        require(y == 0 || (z = x * y) / y == x);\r\n    }\r\n\r\n    function buyTokens(uint256 _amount) public payable {\r\n        require(\r\n            TokenContract(tokenContractAddress).balanceOf(address(this)) >=\r\n                _amount,\r\n            \"Contract out of tokens\"\r\n        );\r\n        require(\r\n            msg.value == multiply(tokenPrice, _amount),\r\n            \"Please send enough ethereum\"\r\n        );\r\n\r\n        tokenSold += _amount;\r\n        TokenContract(tokenContractAddress).transfer(msg.sender, _amount);\r\n        emit Sell(msg.sender, _amount);\r\n    }\r\n\r\n    function endSale() public {\r\n        require(msg.sender == admin, \"Only allowed by admin\");\r\n\r\n        TokenContract(tokenContractAddress).transfer(admin, 750000 - tokenSold);\r\n        selfdestruct(payable(admin));\r\n    }\r\n}\r\n",
  "sourcePath": "C:\\Users\\Divyesh\\Desktop\\Web3\\revoltcoin\\contracts\\TokenSale.sol",
  "compiler": {
    "name": "solc",
    "version": "0.8.17+commit.8df45f5f.Emscripten.clang"
  },
  "schemaVersion": "3.4.8",
  "updatedAt": "2022-09-28T06:00:46.265Z",
  "devdoc": {
    "kind": "dev",
    "methods": {},
    "version": 1
  },
  "userdoc": {
    "kind": "user",
    "methods": {},
    "version": 1
  }
}